:02000004080AE8
:1000000000000A08E0190A080000060006000501C1
:0800100004027E05000000005F
:04001800F8150A08C5
:10001C0009480A4908B5884205D0094A824202D0EB
:10002C00121A01F065FA0748074A0021121A01F06A
:10003C006AFA064808BD00BF0000002044190A08EF
:10004C0074000020740000202007002020070020EE
:10005C0070B501F089F8074B074C1E46E41AA4084A
:10006C000025A54204D056F8253098470135F8E70D
:10007C0070BD00BF04190A0838190A0800F036B818
:10008C0008B500F073F8BDE8084001F02FB800F097
:10009C007BBA00F081BA0078B0FA80F04009704762
:1000AC00012303707047704710B50446054B03607D
:1000BC006433036100F09CFC204600F0D1FD204627
:1000CC0010BD00BFA4170A0810B50446182101F092
:1000DC00B6F8204610BD10B50446FFF7E5FF2046E4
:1000EC004C2101F0ACF8204610BD000010B586B0D4
:1000FC0000F008FF4FF4165100F0E4FE00F002FF90
:10010C0000F0E7FE0028F9D000F0FCFE144C154975
:10011C0000F07BFB00231A461946606800F0E4F9F6
:10012C0000221146606800F0F7F90028F8D0002290
:10013C0042F2B8210C4800F036FC00F0E3FE084B0C
:10014C00002211460446586800F0C6F9811C684626
:10015C0000F066FA6946204600F061FB06B010BD5F
:10016C00340600200C160A086001002070B58EB011
:10017C0001F0FAF940F2022390FBF3F202FB1300B8
:10018C00294C0130206001F0EFF940F2FF3390FB75
:10019C00F3F3C3EB8323C01A244B0130186023689C
:1001AC00234DC2188DE805002249234A234803AC8D
:1001BC0000F0FAF90FCD0FC42B6803AE2370204B5F
:1001CC0009AD08930FCE0FC5236840222B7042F265
:1001DC000E731A4900931B4808AB1B4D00F019FC19
:1001EC0041F2883000F0E8F900237F2229461548B7
:1001FC0000F064FC7F28154C03D800232B5423609B
:10020C0008E0431C06DA2060002242F2B8210D48B7
:10021C0000F0C9FB236823B900F074FE0A4900F012
:10022C00F4FA0EB070BD00BF78000020AC010020C5
:10023C00800000201D160A08000000201A01002072
:10024C003C160A08600100209A0000205C01002086
:10025C0037B500F04DF80021012000F019F9124BD0
:10026C0000221A705A804FF6FF72104C9A80104D73
:10027C00032000F0FDF8204600F0D4FC2A460D497E
:10028C0020460D4C00F0D6FF0423009314220A23C1
:10029C00AC21204600F0ECF92A462046074903B071
:1002AC00BDE8304000F0C6BF940000206001002083
:1002BC0074000020B5000A087C000020B3000A0876
:1002CC0008B5024B1B681B6B019308BDD0010608D7
:1002DC0008B5024B1B685B68019308BD9C010608BE
:1002EC0008B5024B1B685B69019308BD9C010608AD
:1002FC0008B5024B1B681B68019308BDB0010608CA
:10030C0008B5024B1B685B68019308BDBC0106086D
:10031C0008B5024B1B689B68019308BDBC0106081D
:10032C0008B5024B1B685B69019308BDBC0106084C
:10033C0008B5024B1B68DB69019308BDBC010608BC
:10034C0008B5024B1B681B6A019308BDBC0106086B
:10035C0008B5024B1B681B6B019308BDBC0106085A
:10036C0008B5024B1B68DB69019308BDB401060894
:10037C0008B5024B1B689B69019308BDC4010608B4
:10038C0008B5024B1B685B6A019308BDC4010608E3
:10039C0008B5024B1B689B6A019308BDC401060893
:1003AC0008B5024B1B68DB6A019308BDC401060843
:1003BC0008B5024B1B681B6B019308BDC4010608F2
:1003CC0008B5024B1B685B6B019308BDC4010608A2
:1003DC0008B5024B1B681B6C019308BDC4010608D1
:1003EC0008B5024B1B681B68019308BDD8010608B1
:1003FC0008B5024B1B685B68019308BDD801060861
:10040C0008B5024B1B681B69019308BDD80106088F
:10041C0008B5024B1B685B69019308BDD80106083F
:10042C0008B5024B1B689B69019308BDD8010608EF
:10043C0008B5024B1B68DB69019308BDD80106089F
:10044C0008B5024B1B681B6A019308BDD80106084E
:10045C0008B5024B1B685B6A019308BDD8010608FE
:10046C0008B5024B1B689B6C019308BDC0010608C4
:10047C0008B5024B1B685B68019308BDA401060814
:10048C0008B5024B1B685B69019308BDA401060803
:10049C0008B5024B1B68DB6A019308BDA401060872
:1004AC0008B5034B1B68D3F89030019308BD0000CE
:1004BC00A401060808B5034B1B68D3F89C300193C4
:1004CC0008BD0000A401060808B5024B1B68DB6BD5
:1004DC00019308BDCC01060808B5024B1B681B68CC
:1004EC00019308BDC801060808B5024B1B685B6880
:1004FC00019308BDC801060808B5024B1B689B6830
:10050C00019308BDC801060808B5024B1B68DB68DF
:10051C00019308BDC801060808B5024B1B681B698E
:10052C00019308BDC801060808B5024B1B685B693E
:10053C00019308BDC801060808B5024B1B689B69EE
:10054C00019308BDC801060808B5024B1B68DB699E
:10055C00019308BDC801060808B5024B1B681B6A4D
:10056C00019308BDC801060808B5024B1B681B6B3C
:10057C00019308BDC801060808B5024B1B685B6BEC
:10058C00019308BDC801060808B5024B1B681B681F
:10059C00019308BDA001060808B5024B1B685B68F7
:1005AC00019308BDA001060808B5024B1B68DB6867
:1005BC00019308BDA00106080021FFF761BF10B52B
:1005CC008368044613B1032201469847204610BDA8
:1005DC00F8B50F4600F10806051D002416F8011D9C
:1005EC000A22384600F04FF9AE42044407D0002CE2
:1005FC00F4D02E21384600F0F3F80444EEE7204600
:10060C00F8BD000010B50446044B112240F8043B21
:10061C00002100F078FF204610BD00BF3C160A08F0
:10062C000346074A10B543F8042B01F1100251F8A8
:10063C00044B914243F8044BF9D10A781A7010BD5F
:10064C003C160A08024A4160026004220275704797
:10065C003C160A0810B59DF8084044EA032343EA07
:10066C00024242EA016104234160037510BD00009F
:10067C0037B5044D05609DF818500095FFF7EAFF5B
:10068C0003B030BD3C160A0837B50D788B784A7824
:10069C00C97800912946FFF7DDFF03B030BD00009B
:1006AC00014A024B1A607047BE160A08B0010020BE
:1006BC0000231A464068FFF717BF0022022140684A
:1006CC00FFF722BF002211464068FFF715BF00223A
:1006DC0011464068FFF720BF00231A4619464068B0
:1006EC00FFF722BF00231A4619464068FFF724BFC4
:1006FC00002281F001014068FFF726BF002240680C
:10070C00FFF732BF002211464068FFF735BF0022C9
:10071C0011464068FFF720BF70B516468EB00446F0
:10072C0008A8FFF76FFF1122002103A800F0EBFED1
:10073C00304600F053FF00250A4B009581B25B68F0
:10074C0003AA3046FFF78CFE20B129462046FFF75E
:10075C0079FF03E003A92046FFF762FF20460EB0A5
:10076C0070BD00BF34060020034B044A04280CBFA4
:10077C0010461846704700BFB40100203406002014
:10078C00024B034A1A6000225A607047B4010020E1
:10079C0034170A08F8B506460D468F180024BD42DA
:1007AC000CD0336815F8011B9B683046984700281D
:1007BC0001DB0444F3E7002C08BF04462046F8BDD7
:1007CC0070B505460C46084649B100F007FF2B688A
:1007DC00024621462846BDE87040DB68184770BDCC
:1007EC0003689B6818470B460A680146126818464E
:1007FC00104738B50D210546FFF7F2FF0A210446D4
:10080C002846FFF7EDFF204438BD38B50546FFF705
:10081C00D7FF04462846FFF7ECFF204438BD38B517
:10082C000546FFF7E0FF04462846FFF7E2FF2044A9
:10083C0038BD012A98BF0A2230B50B468BB0002177
:10084C008DF824100DF12304B3FBF2F505FB1233E4
:10085C00DBB2092B94BF30333733DBB2214604F8BB
:10086C0001392B46002DEFD1FFF7AAFF0BB030BD9D
:10087C0010B422B90368C9B29B6810BC1847D2B235
:10088C0010BCFFF7D6BFFFF7F3BF10B50446FFF758
:10089C0096FE204610BD0000034800238360034AE7
:1008AC00034900F0C7BC00BFBC010020740000204D
:1008BC0097080A08704710B50446102100F0BFFCD9
:1008CC00204610BD70B504460E46074B002503604C
:1008DC0040F80C5FFFF7F4FC30462671FFF740FD43
:1008EC00A560204670BD00BF68170A084FF6FF725E
:1008FC00034B0020187058809A80FFF7B9BD00BFD9
:10090C00CC010020024B1A68024B1A60704700BFE2
:10091C000C000020D401002010B40468246BA44601
:10092C0010BC604703689B6C1847808E7047028F21
:10093C00C08E101A704713B502AB026803F8011D84
:10094C00D46819460122A04702B010BD10B5036847
:10095C0004461B69984728B1E38EE26B591CE1866B
:10096C00D05C10BD4FF0FF3010BD10B503680446CD
:10097C001B69984718B1E38EE26BD05C10BD4FF049
:10098C00FF3010BD70470346084610B4D98EDC6B9F
:10099C001A8F0368521ADB68214410BC1847A0F167
:1009AC001000FFF7F0BFF7B5054610460F46164688
:1009BC00FFF7DAFE0368DB689847B8B102213B46C3
:1009CC00112208460096FFF7A3FC6861FFF798FC1C
:1009DC00044630B10023EB862B872F836E640120F5
:1009EC0004E02B6828465B6A9847204603B0F0BDAC
:1009FC0038B504464569FFF7ABFC854202D0606907
:100A0C00FFF79EFCFFF7A4FC00236061E3862387BD
:100A1C0038BD30B587B0BDF828400225ADF8085078
:100A2C008DF80B40250ADC798DF80A508DF80C40B6
:100A3C009C798DF80D405C791B798DF80E408DF802
:100A4C000F301023019302AB009340690023FFF792
:100A5C006FFC07B030BD38B5C36B0546C08E13B103
:100A6C002C6C241A00E01C46944228BF14461844EF
:100A7C00224600F03DFDEB8E20462344EB8638BD2C
:100A8C0070B5036804461B690E461546984788B135
:100A9C00236820461B6998478542A8BF0546E38E0C
:100AAC00E16B2A461944304600F022FDE38E2B44BC
:100ABC00E38601E04FF0FF35284670BDF0B50446E3
:100ACC0089B0406C0D461646FFF74EFE0368DB6896
:100ADC00984710B36769FFF73BFC87421DD0E5B11F
:100AEC0008AB102243F8142D01930DEB0203009375
:100AFC002946002332466069FFF712FC051E0EDB07
:100B0C009DF812209DF8133005A943EA0223A38611
:100B1C0004F11C00FFF7B8FD01E04FF0FF3528464B
:100B2C0009B0F0BD2DE9F041064694B0406C0D467D
:100B3C009046FFF719FE0368DB689847F8B1284622
:100B4C0000F04CFD002481B20094736C03AA28467B
:100B5C00FFF786FC90B903A908A8FFF761FD33687D
:100B6C000FAC9F6B074B09AD0E930FCD0FC42B68C9
:100B7C00424623700EA93046B84700E0204614B018
:100B8C00BDE8F0813C160A0870B504460646054BD4
:100B9C0001F1200544F8043B0FCD0FC42B683046FF
:100BAC00237070BD3C160A08F0B594468E46064676
:100BBC00026889B0976A094A03AC1D1D02920FCDD9
:100BCC000FC42B6862462370BDF838307146009311
:100BDC00304602ABB84709B0F0BD00BF3C160A085E
:100BEC00F0B50446036889B09F6A0D4B03AD00F164
:100BFC002006B0F836E002930FCE0FC5336872466C
:100C0C002B70A38EE16B0093204602ABB8470546D0
:100C1C0023682046DB699847284609B0F0BD00BF21
:100C2C003C160A0838B54FF47A7383600B4B0025D9
:100C3C0003F108026C330260036145600446FFF760
:100C4C0087FB606104F11C00FFF7DCFC4FF40073C0
:100C5C00E5862587E5632364204638BD9C170A0882
:100C6C0010B590F84830044623B1C06B10B1012187
:100C7C0000F0E5FA0023E36384F848302364E3864C
:100C8C00238710BD70B5044616460D46FFF7E8FFE6
:100C9C000023E66323643EB935B12846FFF7F7F924
:100CAC000123E06384F84830E36B03B12564206CC6
:100CBC00003018BF012070BDF8B51746C26B054651
:100CCC000C461AB9016C09B1FFF7DCFF05F12006DF
:100CDC0004340FCC0FC6236833700023AF86EB8629
:100CEC002B87286CF8BD70B5C26B04461AB9016C21
:100CFC0009B1FFF7C7FFE16B0023E386238741B1FE
:100D0C00226C32B12068056B2046A8470028C8BF6A
:100D1C00208723682046BDE870401B691847704740
:100D2C004174704708B5007CFFF752FB20EAE07075
:100D3C0008BD08B5007CFFF72BFB20EAE07008BD6E
:100D4C0008B5007CFFF734FB30EA200028BF4FF0D9
:100D5C00FF3008BD08B5007CFFF722FB30EA20000D
:100D6C0028BF4FF0FF3008BD007CFFF729BB10B542
:100D7C000446142100F063FA204610BD70B5457C82
:100D8C0004460E4625B9007CFFF722FB002805DD42
:100D9C003146207CBDE87040FFF7F2BA284670BDA2
:100DAC0010B5044608461146002262604FF47A7270
:100DBC00A260054A20742260012262741A46FFF771
:100DCC00D7FA204610BD00BF14180A0838B50C4DD0
:100DDC00296811F0010411D12846FFF75CF968B1BC
:100DEC00084A2146084B0948FFF7DAFF2846FFF767
:100DFC0057F9074A0749054800F01CFA034838BD63
:100E0C007002002074020020EC010020D8010020A8
:100E1C00740000202B0D0A0841747047704708B508
:100E2C000021007CFFF7FCFA30EA200028BF4FF0CD
:100E3C00FF3008BD08B50121007CFFF7F1FA30EA5C
:100E4C00200028BF4FF0FF3008BD08B5007CFFF72D
:100E5C00DFFA20EAE07008BD08B5007CFFF7D0FA95
:100E6C0020EAE07008BD007CFFF7EABA10B5044632
:100E7C00142100F0E4F9204610BD38B50446007C7E
:100E8C000D46FFF7C5FA002801DC607C28B1294625
:100E9C00207CFFF7CDFA20EAE07038BD10B504468F
:100EAC00002363604FF47A73A360054B08462360FC
:100EBC000123217463741146FFF792FA204610BD8A
:100ECC0044180A080022007CFFF792BA007CFFF756
:100EDC00BFBAFFF7FBBF000010B504461422002177
:100EEC0000F011FB054B20466360054BE36040F2BC
:100EFC00011323818123238210BD00BF7D030020B9
:100F0C00FC02002030B50E4D87B001A8FFF7E4FFBE
:100F1C00296811F0010410D12846FFF7BCF860B124
:100F2C0001AA21460748FFF7B9FF2846FFF7B8F892
:100F3C00054A0649034800F07DF9024807B030BD68
:100F4C00F80200208004002074000020290E0A08FA
:100F5C0010B504461422002100F0D5FA054B2046AA
:100F6C006360054BE36040F20113238181232382EC
:100F7C0010BD00BF300500209804002010B50E4CA9
:100F8C0086B001A8FFF7E4FF2368DB0710D42046E6
:100F9C00FFF781F860B101AA01210848FFF77EFF35
:100FAC002046FFF77DF8064A0649044800F042F94E
:100FBC00024806B010BD00BF940400201C050020A0
:100FCC0074000020290E0A08002211464068FFF721
:100FDC00A3BAF0B5164689B011220F46044600217B
:100FEC0003A800F090FA304600F0F8FA00250095BE
:100FFC0081B27B6803AA3046FFF732FA20B129464A
:10100C002046FFF71FFB03E003A92046FFF708FB70
:10101C00204609B0F0BD002211464068FFF79CBA8B
:10102C00002211464068FFF7A7BA00224068FFF77C
:10103C009BBA002281F001014068FFF785BA0023BA
:10104C001A4619464068FFF777BA00231A46194624
:10105C004068FFF769BA002211464068FFF74CBAA6
:10106C00002202214068FFF74FBA00231A4640685D
:10107C00FFF73ABA024B04225A60024A1A607047D0
:10108C003406002074180A0808B5144B33B1FFF766
:10109C0039FF03681B699847002816DC104B33B1E5
:1010AC00FFF794FE03681B699847002810DC0D4B72
:1010BC000BB1AFF300800C4B7BB1FFF75FFF036804
:1010CC001B699847002806DC08BDAFF30080E5E7F4
:1010DC00AFF30080EBE7AFF3008008BD0000000029
:1010EC0000000000000000000000000008B5FFF741
:1010FC00CBFFFFF7F5F8014B186008BD4406002044
:10110C000248034A0349121A00F0F2B900400240A7
:10111C000440024040190A0807B5002300931A4600
:10112C006FF07701FFF7C6F903B05DF804FB000020
:10113C0007B543880A2B08D0502B09D1094B1B68E3
:10114C003BB103B05DF804EB1847FFF7E5FF06E091
:10115C00002300931A466FF07701FFF7ABF903B049
:10116C005DF804FB3C06002038B5104C104D23688C
:10117C00AB42104B0CBF012200221A7002D0FFF7B9
:10118C00BFFF2560FFF7A4F8044600F0C5F90A4B31
:10119C0013B12046AFF3008000210748FFF794F904
:1011AC00BDE8384000210548FFF77AB900400240FD
:1011BC001E1C279A40060020000000003D110A0862
:1011CC0013B5084C00231A46194600932046FFF726
:1011DC004FFA2046044A054902B0BDE8104000F021
:1011EC0029B800BF4806002074000020B3000A088C
:1011FC0070B50C4C0C4E0D4D00212046FFF762FBD8
:10120C0020460B4C3246294600F014F801212046AA
:10121C00FFF758FB324629462046BDE8704000F0E7
:10122C0009B800BF6006002074000020C1080A083D
:10123C00700600200B460146184600F04BB9FEF72D
:10124C0028BF0000244B1A68D0075CBF01221A602B
:10125C00224B1A68D1075CBF01221A60204B1A6816
:10126C00D2075CBF01221A601E4B1A68D0075CBF04
:10127C0001221A601C4B1A68D1075CBF01221A604C
:10128C001A4B1A68D2075CBF01221A60184B1A68F5
:10129C00D0075CBF01221A60164B1A68D1075CBFDD
:1012AC0001221A60144B1A68D2075CBF01221A6023
:1012BC00124B1A68D0075CBF01221A60104B1A68D7
:1012CC00D1075CBF01221A600E4B1A68D2075CBFB3
:1012DC0001221A60704700BFAC060020A80600204F
:1012EC00A4060020A00600209C06002098060020E2
:1012FC0094060020900600208C0600208806002012
:10130C008406002080060020184B1A68D1075CBFA9
:10131C0001221A60164B1A68D2075CBF01221A60B0
:10132C00144B1A68D0075CBF01221A60124B1A6862
:10133C00D1075CBF01221A60104B1A68D2075CBF40
:10134C0001221A600E4B1A68D0075CBF01221A608A
:10135C000C4B1A68D1075CBF01221A600A4B1A6841
:10136C00D2075CBF01221A60704700BFCC06002078
:10137C00C8060020C4060020C0060020BC060020C1
:10138C00B8060020B4060020B0060020184B1A68DE
:10139C00D1075CBF01221A60164B1A68D2075CBFDA
:1013AC0001221A60144B1A68D0075CBF01221A6024
:1013BC00124B1A68D1075CBF01221A60104B1A68D5
:1013CC00D2075CBF01221A600E4B1A68D0075CBFB3
:1013DC0001221A600C4B1A68D1075CBF01221A60FB
:1013EC000A4B1A68D2075CBF01221A60704700BF13
:1013FC00EC060020E8060020E4060020E0060020B1
:10140C00DC060020D8060020D4060020D0060020E0
:10141C00244B1A68D0075CBF01221A60224B1A6851
:10142C00D1075CBF01221A60204B1A68D2075CBF3F
:10143C0001221A601E4B1A68D0075CBF01221A6089
:10144C001C4B1A68D1075CBF01221A601A4B1A6830
:10145C00D2075CBF01221A60184B1A68D0075CBF18
:10146C0001221A60164B1A68D1075CBF01221A6060
:10147C00144B1A68D2075CBF01221A60124B1A680F
:10148C00D0075CBF01221A60104B1A68D1075CBFF1
:10149C0001221A600E4B1A68D2075CBF01221A6037
:1014AC00704700BF1C0700201807002014070020FD
:1014BC00100700200C07002008070020040700205C
:1014CC0000070020FC060020F8060020F40600208F
:1014DC00F006002010B5054C13462CB10A46014607
:1014EC000220AFF3008010BD204610BD00000000AC
:1014FC0010B5431E0A44914204D011F8014B03F875
:10150C00014FF8E710BD03460244934202D003F8A2
:10151C00011BFAE77047000038B5124B05461C68F2
:10152C00A36BD3B91820FFF72FF843F20E33A06347
:10153C0003804AF6CD33438041F2342383804EF24C
:10154C006D63C3804DF6EC630381052343810B234C
:10155C00838101220023C0E90423A36B00221D61B7
:10156C005A6138BD70000020194B10B51C68A36B74
:10157C00D3B91820FFF708F843F20E33A0630380A9
:10158C004AF6CD33438041F2342383804EF26D63AF
:10159C00C3804DF6EC630381052343810B238381C8
:1015AC0001220023C0E90423A16B0A4C0B69486992
:1015BC005C43094A02FB0040A3FB022301320344B3
:1015CC0043F10003C1E9042323F0004010BD00BF28
:1015DC00700000202DF451582D7F954C034613F8C4
:1015EC00012B002AFBD1181A013870471D000A087C
:1015FC005D000A0889000A088D000A080000000036
:10160C0074657374207468652073657269616C21EC
:10161C000073746172742C25732C25642C25642C36
:10162C0025642C656E6400000000000000000000C2
:10163C00DD050A08B3000A08D5000A086261756462
:10164C000053657269616C00555342536572696150
:10165C006C31007479706500706172616D00636D3E
:10166C006400696400686E64007374726D0066696E
:10167C006C74006C766C0061646448616E646C65BB
:10168C00720072656D6F766548616E646C65720090
:10169C00656E756D48616E646C657273004A534F6C
:1016AC004E53747265616D4C6F6748616E646C6506
:1016BC00720061707000253031307520005D2000A3
:1016CC002564002C200028293A2000205B00636F41
:1016DC006465203D200025690064657461696C7344
:1016EC00203D20000D0A0066006C6E00666E0063E3
:1016FC006F64650064657461696C006E6F6E650083
:10170C00747261636500696E666F007761726E005A
:10171C006572726F720070616E696300616C6C004F
:10172C000000000000000000BD060A08C7060A08F9
:10173C00D1060A08DB060A08E5060A08F1060A08BB
:10174C00FD060A0809070A0811070A081B070A08F8
:10175C0025070A080000000000000000C1080A0864
:10176C00C3080A085A00252B3033643A25303275E9
:10177C000025592D256D2D25645425483A254D3AC3
:10178C002553257A0061736374696D650000000050
:10179C000000000000000000B5000A08E3000A0881
:1017AC0043090A08630A0A083B090A0859090A0886
:1017BC0077090A0891090A08B3090A08FD090A08F9
:1017CC001F0A0A08B50B0A08C90A0A0825090A08DB
:1017DC00C50C0A08310B0A08ED0B0A08F30C0A08B1
:1017EC008D0A0A0831090A08950B0A0837090A08F4
:1017FC0093090A08F0FFFFFF00000000AB090A087C
:10180C0000000000000000002B0D0A087B0D0A08E8
:10181C00890D0A08A1070A083F0D0A08610D0A087C
:10182C004D0D0A08750D0A082D0D0A08310D0A0810
:10183C000000000000000000290E0A08790E0A08BA
:10184C00870E0A08A1070A08650E0A082B0E0A085B
:10185C00410E0A08730E0A08570E0A08250E0A08CC
:10186C00000000000000000077100A086D100A0844
:10187C0063100A08D50F0A0857100A084B100A08FB
:10188C003F100A0837100A082D100A0823100A08FE
:10189C00DF0F0A080000000000000000000000003C
:1018AC00000000000000000000000000000000002C
:1018BC00000000000000000000000000000000001C
:1018CC00000000000000000000000000000000000C
:1018DC0000000000000000000000000000000000FC
:1018EC0000000000000000000000000000000000EC
:1018FC0000000000430000005D020A08AD060A0863
:10190C008D070A08A5080A08F9080A0811090A0827
:10191C0081100A08CD110A08FD110A0851120A0893
:10192C0015130A0899130A081D140A080000000070
:04193C0000000000A7
:0419400000000000A3
:101944005061727469636C652D42000091170A0836
:1019540000000000A0180A08C0180A08E0180A08C5
:101964000000000000000000000000000000000073
:1019740000190A0800000000000000000000000038
:101984000000000000000000000000000000000053
:101994000000000000000000000000000000000043
:1019A4000000000000000000000000000000000033
:0419B40010000020FF
:1019B800FFFFFFFF00000102030405060708090AEC
:1019C8000B0C0D0E0F101112131415161718191AE7
:0819D8001B1C1D1E1F2028002E
:0419E00078563412EF
:04000005080A001CC9
:00000001FF
